:020000005A2E76
:10000800FF00030E8301DD000A08DE008A010B1CD5
:1000180023288B11061A1228081013280814861A88
:100028001728881018288814061B1C2887111D28D3
:1000380087150030861B0130A5000B108B155E0854
:0C0048008A005D0E8300FF0E7F0E090091
:0E005400213083120313FD00FD0B2E2808003F
:0600620000000000080090
:100068000F3083120313FC004730FD00FD0B3A28C4
:0A007800FC0B3A280000000008000D
:100082007B15FB1F4B280130F300F201F101F00157
:08009200FA0DF20CFF3008002A
:10009A0083120313F801F9011030FC00710DF80DF9
:1000AA00F90D7408F8027508031C750FF902031894
:1000BA0065287408F80775080318750FF9070310FF
:0A00CA00F00DF10DFC0B53280800A7
:1000D40083160313A21B71288312871373288312B8
:1000E40087178316221B7928831207137B28831210
:1000F40007178316A21A8128831287128328831272
:1001040087168316221A8928831207128B288312D2
:1001140007165A188F2808159028081188153120B9
:1001240088118316A2199928831287139B28831296
:10013400871783162219A12883120713A328831271
:1001440007178316A218A92883128712AB288312D3
:10015400871683162218B12883120712B328831234
:1001640007165A18B7280815B82808118815312019
:0E01740088115A1CBF283420C0282A200800F9
:08018200FA1FF213003008001F
:10018A00FB14FB1FCF28FF30F300F200F100F00050
:08019A00FA0DF20CFF30080021
:0E01A200F201F101F001F801F3010030080054
:1001B00083160313A001053020020318E828200845
:1001C00083126F078400203080008316A00ADB288A
:1001D000200883126F07840080018316A003200883
:1001E00083126F078316A1000A30F400F501831211
:1001F0006D08F0006E08F1004D207808F0007908D5
:10020000F1003030F0078316210884007008800068
:100210000A30F400F50183126D08F0006E08F10059
:100220004D207008ED007108EE0000307106031DCE
:100230001B2900307006031D1E2921298316A003E7
:04024000EF2808009B
:10024400831203135A106D088316A2006A205A14ED
:020254000800A0
:10025600710DF80DF90D7408F8027508031C750F79
:10026600F902F00DF10D0F30FC00710DF80DF90DCE
:100276007408701C4429F8027508031C750FF902EE
:100286004929F80775080318750FF907F00DF10DE0
:10029600FC0B3829701855297408F80775080318D7
:0802A600750FF90700000800C4
:1002AE007B14FB1F6229F201FA1FFF30F200F100EE
:0A02BE00F000FA0DF20CFF3008000A
:1002C800A0017208031D79297108F2007008F10075
:1002D800F001A0157208031D79297108F200F101D7
:1002E800A01120167208031987292008F302031D9C
:1002F800031C8B290310F21B8F29F00DF10DF20D51
:10030800F30B7F298B290130FC00D1209229023080
:0E031800FC00412092290430FC00C1200800A6
:100326007C18C929FC189A297C19E8299329A00167
:100336007208031DBA297108F2007008F1007808E6
:10034600F000F801A0157208031DBA297108F20021
:100356007008F100F001A01120167208031DBA29D9
:100366007108F200F101A01572080319DC292008B2
:10037600F302031D031CE0290310F21BC929F80D23
:10038600F00DF10DF20DF30BC029E0297B1B701C5B
:10039600E429F81FE429F00A0319F10A0319F20AFD
:1003A600031DE429F20CF10CF00CF30A0319E829F9
:1003B600E4290130FC00D120EB290230FC00412069
:1003C600EB290430FC00C120EB290830FC00C520D5
:0403D600000008001B
:1003DA008312031372087606A000F801F901730864
:1003EA007702031C102A7708FD007308F7007D08BE
:1003FA00F3007608FD007208F6007D08F200750821
:10040A00FD007108F5007D08F1007408FD00700810
:10041A00F4007D08F00077080319892A7208FA00A7
:10042A00F217F61777087302F7000319432A083000
:10043A007702031C392AF7007408F9007508F400DA
:10044A007608F500F60108307702031C392AF7000E
:10045A007408F9007508F400F50108307702031CE6
:10046A00392A7A08F200892A77080319432A0310DD
:10047A00F60CF50CF40CF90CF70B3C2AA01F502AC9
:10048A00F909F409F509F609F90A0319F40A03192D
:10049A00F50A0319F60A7908F80774080318740F9D
:1004AA00F00775080318750FF10776080318760F19
:1004BA00F207A01B692A031C792AF20CF10CF00C32
:1004CA00F80CF30F792A852A03187D2AF809F0090E
:1004DA00F109F209F80A0319F00A0319F10A0319D2
:1004EA00F20A8030FA06812A0130FC0093218B2A15
:1004FA000230FC0093218B2A0430FC0064218B2AF1
:10050A000830FC00C5208B2A0030FC0000000800DF
:10051A00831203137008F8007108F000F101F20168
:10052A00F301FB01FC019630F300FA01F01FA32A44
:10053A00F809F009F80A0319F00AFA177008F10025
:0C054A007808F000F801F20164210800BC
:10055600831203137408003A031DBA2A7508003A79
:10056600031DBA2AFF30F0007F30F100132B8312EF
:100576000313FD01F901F801710870040319003431
:1005860071087506FA00FA1BFD09FB01F51FD02A52
:10059600F409F509F40A0319F50AF11FD72AF00937
:1005A600F109F00A0319F10A71087504FA00FA1B39
:1005B600EC2A2B217B18FF2AFD1F0034F009F109D4
:1005C600F00A0319F10AF809F909F80A0319F90AF0
:1005D6000034F51FFB2AF11BF72A7108F900700891
:1005E600F800F101F001DF2AF101F001F00A003410
:1005F600F109F009FB0ADC2AF80A0319F90A74085A
:100606007802031DDF2A75087902031DDF2AF90126
:10061600F801F00A0319F10AF11FDF2A0000FF347E
:020626000800CA
:10062800803083120313F000803022067002031D0D
:100638001F2B2108003C031C222B09147F30F000DB
:10064800803022067002031D2B2B2108D33C03188F
:10065800392B8030F000803022067002031D362BC3
:1006680021082D3C031C392B89148030F000803080
:1006780022067002031D422B2108003C0318452B5B
:040688000915080048
:10068C0083120313F101F20180306506F000803013
:10069C0072067002031D542B71086402031C642B38
:1006AC000330FC009730FD00FD0B5A2BFC0B5A2B32
:0E06BC0000000000F10A0319F20A4A2B0800A0
:1006CA0083120313FB01FC01FA0173080319922B2D
:1006DA00FA13F2178630F302F31B762B0319762BE3
:1006EA00942BF309F30A08307302031C832BF300DB
:1006FA00F20DF2017308031D03108A2B7308031904
:10070A008A2B0310F20CF30B862B7B1B721C922B89
:10071A00031C922BF20A0319992BF1019C2B7B14CF
:10072A00FB1F9F2BF1019F2B0130FC00A12B0030F6
:10073A00FC00A12BFF30FC00FC080319A52B572154
:06074A007208F000080037
:1007500083120313E901EA016408EB006508EC0069
:1007600080306506F00080307002031DB92B003028
:1007700064020318C72B0130E9000030EA00640866
:10078000003CEB006508031C013EEC01EC026B0829
:10079000ED006C08EE006608EF00D82006308312EA
:1007A0000313E7000030E8006808003C031DDA2B63
:1007B0006708003C0318F52B67086607F200013054
:1007C0006702F0000030031C013E6802F10070086F
:1007D000660784000008F00072088400700880003A
:1007E0000130E702031CE803D42B660884002030A4
:1007F000800069086A040319132CE701E8016708FF
:10080000660784000008203A031D0A2CE70A031932
:10081000E80AFF2B0130E702031CE80367086607BC
:0808200084002D308000080067
:1008280083120313FB01FA01F9018030F800F10C7F
:10083800F00C031C282C7408F90775080318750FA9
:10084800FA070318FB0A0310F01F302C7408FA0784
:1008580075080318750FFB07FB0CFA0CF90CF80C5C
:10086800031C1B2C7B08F3007A08F2007908F100BE
:060878007808F000080002
:10087E00512C803083120313E400642CC030E4004A
:10088E00642C9430E400642CD430E400642C80306A
:10089E00E400642C831203136408013A0319402CFC
:1008AE006408023A0319452C6408033A0319482CCC
:1008BE006408043A03194B2C4E2C6503F0006408AF
:1008CE00F0077008E40070088316A2006A205A1020
:1008DE00E701670866078400000803197E2C670885
:1008EE00660784000008ED002221E70A702C5A14D6
:0208FE000800F0
:100900008030831203132206F000803063067002E9
:10091000031D8C2C620821020318B92C1F30F00033
:100920000030F1002108F4002208F50014242D30D5
:10093000F4000030F500AB228D220030F40080304E
:10094000F5003B30F6008630F700ED216523700896
:100950009B00063092042308053CE4002408031C95
:10096000013EE501E50246231423A10A0319A20A68
:10097000802C80306306F000803022067002031D58
:10098000C32C210862020318F12C1F30F000003044
:10099000F1002108F4002208F50014242D30F400A1
:1009A0000030F500AB228D220030F4008030F500DD
:1009B0003B30F6008630F700ED21652370089B0080
:1009C000063092042308053CE4002408031C013E81
:1009D000E501E502462314230130A102031CA20312
:1009E000B92C2108E4002208E5004830E600A823DD
:1009F0000130E4000E30E5004830E6003F240800F6
:100A00000E3083120313FD00FD0B042D00000800BF
:100A10001D2DA63083120313E200FF30E300802473
:100A2000E201E30180242F2DE201E30180245A300A
:100A3000E2000030E30080242F2D831203130030E6
:100A40006106031D252D0B3060060319092D0030AA
:100A50006106031D2D2D0E3060060319142D0800AC
:100A6000831203139F01C0309F042609F000700811
:100A700083169F051F179F1783126008F000F00D63
:100A80007010F00D7010F00D701070089F041F149E
:100A900000251F151F1D4E2D00004A2D1F101E087A
:100AA000F100F00183161E08F0040030F104080084
:0E0AB0008312031359088A00580882000800B8
:100ABE0083120313E00130250530F4000030F500F9
:100ACE001424FF30F4000330F5004D207008A3000D
:100ADE007108A4007008E4007108E5004830E600D3
:100AEE00A8230230E4000E30E5004830E6003F2433
:100AFE000608DF00DF0CDF13DF0CDF13DF0CDF1364
:100B0E00DF0CDF13C02DA630E200FF30E30080249F
:100B1E00D52DE201E3018024D52D5A30E2000030BC
:100B2E00E3008024D52D0B30E0000030E1000825D5
:100B3E000E30E0000030E1000825D52D0B30E0002E
:100B4E000030E10008250E30E0000030E1000825FD
:100B5E00D52D0430F0000608E000E10170080319FD
:100B6E00BC2DE00CE013FF3EB62D0030E100082551
:100B7E00D52D5F08093A03198A2D5F080A3A031921
:100B8E00902D5F080C3A0319942D5F080F3A031944
:0E0B9E009A2D5F080D3A0319A52DB02D080001
:0A0BAC008B170B138B150B100800BC
:100BB6008316031388110811071287120713871368
:100BC600831288110811871307138712071234201E
:100BD60034203420871607168815312088113420D2
:100BE6008815312088113420881531208811342049
:100BF6000712881531208811342088153120881174
:100C06008712871788153120881134208713071615
:100C16008815312088110712881531208811342053
:100C2600881531208811071688153120881134203F
:100C36000712881531208811871707178716071698
:0C0C460088153120881134205A14080051
:100C520083120313E00130253230F4000030F50036
:100C62001424FF30F4000330F5004D207008DB003F
:100C72007108DC00B430F400F50114243230F400C1
:100C82000030F500AB225A307002E2000030031C43
:0A0C9200013E7102E3008024080017
:100C9C0058258A110A128000840AD80A0319D90A25
:080CAC00F003031D4E2E0800A9
:100CB400DC26DB250C308316A2006A200130E40018
:100CC4000130E5003030E6003F240B30FB002630D5
:100CD400FC005D30FD00FD0B6D2EFC0B6D2EFB0B3F
:100CE4006D2E0000000001308316A2006A208316D6
:100CF40087100F30850089010C3083129D04063063
:100D040092040130E4000130E5002730E6003F247E
:100D14000230E4000130E5004230E6003F2483164F
:100D24000810881087118312081087118711D6259F
:100D34002508013A031DA02E5F25A12E2926023085
:100D4400FB000430FC00BA30FD00FD0BA72EFC0BA9
:0C0D5400A72EFB0BA72E00009A2EAF2E3E
:100DB80021308400273083120313F000B530D800A7
:080DC8000630D9004E26080098
:040D6A00A634FF3478
:040D6E000534003414
:020D720000344B
:020D74000F343A
:100D760050346F3473346934743469346F346E3478
:020D8600003437
:100D8800483465346C346C346F34203461346E34D8
:100D980064342034573465346C3463346F346D34C0
:040DA800653400347A
:0C0DAC0053347034653465346434003412
:02400E004A2F37
:00000001FF
